:020000040000FA
:100000000A128A110C280800FE00030EF0000A08EC
:10001000F1000A128A158F2B0A128A110F288312F7
:100020000313D501D601D701D801D9018313A0301C
:100030008400C4300A128A1542230A128A118301ED
:100040000A128A112328831603138801FF308600C1
:10005000811301138B170B160B1700308312031338
:10006000A9000030A8002530A7008030A6000A12A1
:100070008A1556240A128A110A128A15A0250A1214
:100080008A110A128A154A230A128A110A128A153B
:1000900053230A128A11F601F60A01300A128A1550
:1000A000C1240A128A112F30F7008530F8000A1295
:1000B0008A11BA270A128A11F601F60A04300A12C6
:1000C0008A15C1240A128A1183160313DA01DB018F
:1000D000FF300A128A158A240A128A11023083120A
:1000E0000313D4004530D300A930D200D20B7628B8
:1000F000D30B7628D40B76286400013083160313C3
:10010000DA070318DB0A0030DB075B08803AFF00E0
:1001100080307F02031D8E2814305A02031C912860
:10012000922868280A128A1553230A128A11F601A6
:10013000F60A01300A128A15C1240A128A112F30D8
:10014000F7008530F8000A128A11BA270A128A11BC
:10015000F601F60A04300A128A15C1240A128A111D
:100160002F30F7008630F8000A128A11BA270A12D7
:100170008A11640083160313420843040319C1283B
:10018000C22814290A128A1553230A128A11F60169
:10019000F60A02300A128A15C1240A128A11EF30B7
:1001A000F7008530F8000A128A11BA270A128A115C
:1001B0001A3083120313D4005E30D3006D30D200A6
:1001C000D20BE028D30BE028D40BE028E7288316D5
:1001D0000313C201C301C001C1010A128A155323CE
:1001E0000A128A11F601F60A01300A128A15C12490
:1001F0000A128A112F30F7008530F8000A128A118E
:10020000BA270A128A11F601F60A04300A128A1570
:10021000C1240A128A112F30F7008630F8000A1222
:100220008A11BA270A128A11831203138618192910
:100230001A290F2A063083120313D4001330D30077
:10024000AD30D200D20B2229D30B2229D40B222984
:100250002A29640083120313861C2F293029292997
:10026000013083160313C0070318C10A0030C10709
:100270004108803AFF0080307F02031D412904308D
:100280004002031C442945294B29013083160313DE
:10029000C0000030C100F601F60A02300A128A15C9
:1002A000C1240A128A110330F7008530F8000A12BF
:1002B0008A11BA270A128A11F601F60A03300A12C5
:1002C0008A15C1240A128A110330F7008530F8001C
:1002D0000A128A11BA270A128A11F601F60A0430A4
:1002E0000A128A15C1240A128A110330F7008530D8
:1002F000F8000A128A11BA270A128A118316031308
:1003000040034104031D85298629A829F601F60A20
:1003100002300A128A15C1240A128A11CD30F70060
:100320008530F8000A128A11BA270A128A11F601DA
:10033000F60A04300A128A15C1240A128A11FF3003
:10034000F7008530F8000A128A11BA270A128A11BA
:1003500002308316031340064104031DB029B1295E
:10036000D329F601F60A02300A128A15C1240A12AC
:100370008A113F30F7008630F8000A128A11BA2736
:100380000A128A11F601F60A04300A128A15C124EB
:100390000A128A111F30F7008630F8000A128A11FB
:1003A000BA270A128A110330831603134006410448
:1003B000031DDB29DC290F2AF601F60A02300A1296
:1003C0008A15C1240A128A110F30F7008630F8000E
:1003D0000A128A11BA270A128A11F601F60A0330A4
:1003E0000A128A15C1240A128A11BC30F70085301E
:1003F000F8000A128A11BA270A128A11F601F60ABF
:1004000004300A128A15C1240A128A114F30F700EB
:100410008630F8000A128A11BA270A128A1183124A
:1004200003130619142A152AB92883160313420840
:100430004304031D1C2A1D2AB92840034104031D3F
:10044000222A232ABF2AF601F60A03300A128A1545
:10045000C1240A128A115E30F7008630F8000A12B1
:100460008A11BA270A128A11362A640083120313EA
:10047000061D3B2A3C2A352AB72A6400831203133F
:100480008618432A442A452ABF2A0A128A153B2382
:100490000A128A11003A03194E2A4F2AB72A0A1261
:1004A0008A156E230A128A1183160313DF00753032
:1004B0005F0603195C2A5D2A632A6C305F06031D00
:1004C000622A632AB72A5F08F20000300A128A15EE
:1004D000E6230A128A11F601F60A03300A128A1577
:1004E000C1240A128A118930F7008530F8000A12F7
:1004F0008A11BA270A128A117530831603135F0610
:10050000031D832A842A962AF601F60A04300A1269
:100510008A15C1240A128A117830F7008530F80054
:100520000A128A11BA270A128A11A72AF601F60AB4
:1005300004300A128A15C1240A128A116730F700A2
:100540008530F8000A128A11BA270A128A11273058
:1005500083120313D4000D30D3002530D200D20B08
:10056000AF2AD30BAF2AD40BAF2AB62ABF2A8316E1
:100570000313420843040319BE2ABF2A3D2AF60189
:10058000F60A02300A128A15C1240A128A11CD30E5
:10059000F7008530F8000A128A11BA270A128A1168
:1005A000F601F60A03300A128A15C1240A128A11CA
:1005B0000330F7008530F8000A128A11BA270A12B0
:1005C0008A1102308316031340064104031DE92AF1
:1005D000EA2A612BEC2A640083120313061DF12A18
:1005E000F22AEB2A00300A128A15A1230A128A1174
:1005F00083160313DC0075305C060319002B012BF6
:10060000072B6C305C06031D062B072B412BF601D4
:10061000F60A03300A128A15C1240A128A11AB3075
:10062000F7008530F8000A128A11BA270A128A11D7
:10063000831603135C080A128A1560230A128A11B2
:100640000D3083120313D400AF30D300B530D20085
:10065000D20B282BD30B282BD40B282B2F2BF601B6
:10066000F60A03300A128A15C1240A128A1156307A
:10067000F7008530F8000A128A11BA270A128A1187
:10068000612BF601F60A03300A128A15C1240A12F8
:100690008A119A30F7008530F8000A128A11BA27B9
:1006A0000A128A111A3083120313D4005E30D30069
:1006B0006D30D200D20B5A2BD30B5A2BD40B5A2BA2
:1006C000612BF601F60A02300A128A15C1240A12B9
:1006D0008A113F30F7008630F8000A128A11BA27D3
:1006E0000A128A11F601F60A03300A128A15C12489
:1006F0000A128A110330F7008530F8000A128A11B5
:10070000BA270A128A1103308316031340064104E4
:10071000031D8B2B8C2BB928F601F60A03300A1225
:100720008A15C1240A128A11DE30F7008530F800DC
:100730000A128A11BA270A128A110D308312031382
:10074000D400AF30D300B530D200D20BA52BD30BE1
:10075000A52BD40BA52BAC2BAE2B6400831203135B
:10076000061DB32BB42BAD2BCC2C64000A128A15BA
:10077000B6230A128A11730883160313D90072086C
:10078000D800003083120313A7000030A600033006
:10079000A500FF30A400831603135808F20059087F
:1007A000F300F401F5010030F9000030F8000030EA
:1007B000F7006430F6000A128A15FD240A128A1125
:1007C000750883120313AB007408AA007308A9000C
:1007D0007208A8000A128A1561260A128A11831269
:1007E0000313250883160313DE0083120313240862
:1007F00083160313DD00C43083120313C00044309A
:10080000C1008530C200831603135E0883120313F0
:10081000C400831603135D0883120313C3000A1276
:100820008A150A240A128A11F601F60A03300A12FE
:100830008A15C1240A128A11C430F7000030F8006A
:100840000A128A11BA270A128A1183120313061A8E
:100850002A2C2B2CCC2CAD2C5E08803AFF0080304B
:100860007F02031D352C50305D020318382C392CC3
:10087000512CF601F60A04300A128A15C1240A1214
:100880008A111830F7008530F8000A128A11BA2749
:100890000A128A1142300A128A1560230A128A113A
:1008A0009E2C831603135E08803AFF0080307F027F
:1008B000031D5C2C50305D02031C5F2C602C872CC8
:1008C000831603135E08803AFF0080307F02031D09
:1008D0006B2C5F305D0203186E2C6F2C872CF60199
:1008E000F60A04300A128A15C1240A128A116B30E2
:1008F000F7008630F8000A128A11BA270A128A1104
:1009000043300A128A1560230A128A119E2CF601BE
:10091000F60A04300A128A15C1240A128A116B30B1
:10092000F7008630F8000A128A11BA270A128A11D3
:1009300000300A128A1560230A128A1102308312CB
:100940000313D4004530D300A930D200D20BA62C1B
:10095000D30BA62CD40BA62C640083120313061A07
:10096000B22CB32CBB2C8316031342084304031987
:10097000BA2CBB2C2C2CF601F60A04300A128A156C
:10098000C1240A128A110030F7008530F8000A12DB
:100990008A11BA270A128A118316031342084304E4
:1009A000031DD32CD42CB928831203138618D92CF9
:1009B000DA2CB52BB9280A128A110C28F200721C05
:1009C000E22CE32CE72C831203130816EA2C831283
:1009D00003130812F21CED2CEE2CF02C8816F12CCF
:1009E0008812721DF42CF52CF72C0817F82C08131C
:1009F000F21DFB2CFC2CFE2C8817FF2C8813080002
:100A00002034203420342034203420342034203446
:100A10002034203420342034203420342034203436
:100A20002034203420342034203420342034003446
:100A30003E343E343E342034533445344E34443412
:100A400049344E34473420344134543454344134DE
:100A500043344B3420343C343C343C340034433451
:100A600041344E34203441345434543441344334CA
:100A70004B342034533449344D3455344C344134A0
:100A800054344F34523400344C344F3441344434B1
:100A90003A342034253464342534253420345B340E
:100AA0004B3449344C344C345D34003444344F348A
:100AB0004E3445342E342034203420342034203435
:100AC0002034203420342034203420340034543472
:100AD0005934503445343A3420344C344F34433450
:100AE0004B3420342034203420342034203400345B
:100AF00054345934503445343A34203455344E3417
:100B00004C344F3443344B3420342034203420349C
:100B10000034433441345034543455345234453421
:100B200044343A3420344B3445345934203420345E
:100B3000203400344534523452344F3452343A3431
:100B400020344E344F3420344B344534593421341E
:100B500020342034003449344E344A34453443344C
:100B6000543449344E34473420344B3445345934AA
:100B70002E342E342E34003455345334453420343E
:100B800050344F345434203454344F3420344634A9
:100B90004C344F344F34443400343E3420343134F8
:100BA0002E34203453344E3449344634463445349C
:100BB000523420344B3445345934003441344434B5
:100BC0004A34553453345434203449344E34543434
:100BD00045344E3453344934543459340034213478
:100BE000213421342034413442344F34523454348B
:100BF00045344434203421342134213400345B34EE
:100C0000533445344C345D34203454344F34203420
:100C10005234453443344F345234443400343E3437
:100C2000203433342E34203444346F34533420345D
:100C3000413454345434413443344B3400345B3401
:100C4000533445344C345D34203454344F342034E0
:100C500049344E344A3445344334543400345B34DC
:100C60004D3445344E3455345D34203454344F348F
:100C700020345334543441345234543400343E34E8
:100C8000203432342E3420345234453450344C34F1
:100C90004134593420344B344534593400345B34B6
:100CA000533445344C345D34203454344F34203480
:100CB0005334543441345234543400344C34493471
:100CC0005334543445344E3449344E3447342E343E
:100CD0002E342E3400343E343E343E3420344B34F3
:100CE00049344C344C3420343C343C343C340034AF
:100CF000831203132B08840083130008AD00840AB9
:100D00000008AE002E08FF002D0884000A128A1584
:100D100000200A128A11253A031D8F2E902E982F3B
:100D20002B088400013083138007840A0318800A8B
:100D3000D501D6010030D900FF30D700FF30D800F0
:100D40002B0884000008B200840A00088403B30062
:100D50003308FF00320884000A128A1500200A12A4
:100D60008A11643A0319B52EB62EC42E3308FF003B
:100D7000320884000A128A1500200A128A11693A80
:100D8000031DC32EC42E612F2C088400831300087A
:100D9000AD00023080072D0884000008B400840AEA
:100DA0000008B5000130AD002D083207AF00330850
:100DB000AE000318AE0AAD1BAE032E08B0002B0820
:100DC00084002F0880003008840A800084032030CB
:100DD000B800B51BEC2EEE2E0130EF2E0030B10026
:100DE0000130B8023808A03E84000A30F20000301A
:100DF000F3003508F5003408F4000A128A15492575
:100E00000A128A117308F9007208F8000A128A158A
:100E10007E230A128A117808303E831380000A303C
:100E2000F2000030F300831203133508F500340894
:100E3000F4000A128A15FE250A128A117308831219
:100E40000313B5007208B400340835040319292FC0
:100E50002A2F2F2F3808031D2E2F2F2FF02E380862
:100E60000319332F342F5A2F31080319382F392FF4
:100E70005A2F0130B8023808A03E84002D30831369
:100E800080005A2F3808A03E840083130008AD006C
:100E9000AE012D08F2002E08F3002908F4002A08FC
:100EA000F5000A128A1560270A128A11013083128E
:100EB0000313B80720303806031D5F2F602F422F21
:100EC000B92F2B08840083130008AD00840A0008A2
:100ED000AE002E08FF002D0884000A128A1500209B
:100EE0000A128A11253A031D762F772F8D2F2B0892
:100EF0008400013083138007840A0318800A253098
:100F0000F2000030F3002908F4002A08F5000A1264
:100F10008A1560270A128A11B92F831203132B082E
:100F20008400013083138007840A0318800AB92FD4
:100F30002B08840083130008AD00840A0008AE006B
:100F40002E08FF002D0884000A128A1500200A12BC
:100F50008A11AF00B0012F08F2003008F300290811
:100F6000F4002A08F5000A128A1560270A128A116D
:100F70008D2F080083120313A001A101E32F200885
:100F80007707FA007808F9000318F90AA01FC92F9B
:100F9000F9037908FB007B0883120313FF007A082A
:100FA00084000A128A1500200A128A110A128A1570
:100FB0008A240A128A11013083120313A00703182E
:100FC000A10A0030A10720087707FA007808F90085
:100FD0000318F90AA01FED2FF9037908FB007B081D
:100FE00083120313FF007A0884000A128A15002076
:100FF0000A128A11003A031DFE2FFF2FBF2F08008F
:10100000FF1B0A2883137F1883170008840A03191B
:10101000FF0A08007F087F398A000408840A031940
:04102000FF0A820041
:10167600831203130C0EF200720C01390800640089
:101686008001840A0406031900340406432B413002
:10169600831203139F008E30831603139F000800E6
:1016A60000300A128A15CC230A128A1501300A1252
:1016B6008A15CC230A128A150800F200632B6400EF
:1016C60083160313981C682B692B622B72088312EE
:1016D600031399000800702B6400831203138C1EF9
:1016E600752B762B6F2B981C792B7A2B7C2B18124B
:1016F60018161A080800F91B812B822B832B8E2BB8
:101706007809FA007909FB00FA0A0319FB0A7A0834
:10171600F8007B08F90008008B1C922B932B9A2B60
:10172600013083160313C2000030C3008B1071080A
:101736008A00700E8300FE0E7E0E0900F200A42BB6
:101746006400831603178C18A92BAA2BA32B7208E7
:10175600831203178D00831603178C130C14831240
:1017660003170C0808002130F400F40BB82B831281
:1017760003131F15BF2B6400831203131F19C42BF9
:10178600C52BBE2B1E08F300831603131E08F2009A
:101796000800F50083120313081175080A128A114E
:1017A600DE240A128A158312031388151A30F400F0
:1017B600F830F300F30BDD2BF40BDD2B0000831266
:1017C600031388110800F300E92B6400831603173E
:1017D6008C18EE2BEF2BE82B7308831203178D0062
:1017E60072088C00831603178C130C158B13553057
:1017F6008D00AA308D008C14012C6400831603170B
:101806008C18062C072C002C8B170C110800433063
:1018160083120313C6004008C7000030C800C90180
:10182600CA01D001D1014730B9000030BA004108E1
:10183600BB004208BC004630BD000A128A152F24A0
:101846000A128A158312031349084007C500450882
:101856008400831380010800831203133B08BE0033
:101866003C08BF00432C3908A9003A08AA003E30BC
:10187600AB003D08AC000A128A1178260A128A15B6
:10188600831203133F08FF003E0884000A128A15DC
:1018960000200A128A15003A031D522C532C362CAE
:1018A600B901BA010800831203132608AA00270803
:1018B600AB002808AC002908AD0004300310AA0DBF
:1018C600AB0DAC0DAD0DFF3E031D612C2D08F500D3
:1018D6002C08F4002B08F3002A08F2000130F90066
:1018E6003130F8002D30F7000030F6000A128A1564
:1018F600C7260A128A157208FF3E8316031399003B
:101906009816181583120313981718160800F60070
:101916007608F4000F30F4057608F500F030F5058A
:101926008312031308157508F30004300310F30C33
:10193600FF3E031D992C73080A128A11DE240A122F
:101946008A158312031388154230F300F30BA92C72
:10195600000083120313881174080A128A11DE2408
:101966000A128A158312031388154230F300F30B0B
:10197600BA2C00008312031388110800FA007A03B8
:10198600031DC62CC72CCB2C76087F3EFB00E22C11
:1019960002307A06031DD02CD12CD52C7608BF3EFA
:1019A600FB00E22C03307A06031DDA2CDB2CDF2C3D
:1019B6007608933EFB00E22C7608D33EFB007B08BC
:1019C600F70004300310F70CFF3E031DE52C7708E3
:1019D600F8007B08F9000F30F90578080A128A1515
:1019E600CC230A128A1579080A128A15CC230A1200
:1019F6008A150800003083120313A3000030A200EA
:101A06000030A1000030A000721C0A2D0B2D242DE1
:101A1600760883120313A007770803110318013E03
:101A26000319162DA107780803110318013E03199F
:101A36001D2DA207790803110318013E0319242D51
:101A4600A3070130FA000310F60DF70DF80DF90D96
:101A5600FA0B262D01300310F50CF40CF30CF20CE6
:101A6600FF3E031D2E2D7508740473047204031DB6
:101A76003D2D3E2D072D831203132308F500220862
:101A8600F4002108F3002008F2000800F701F51F12
:101A96004D2D4E2D552DF409F509F40A0319F50AB5
:101AA6000130F700F31F582D592D5E2DF209F30969
:101AB600F20A0319F30A720873040319632D642DDD
:101AC600912D0130F600702D01300310F20DF30D4B
:101AD600FF3E031D682D0130F607F31F732D742D8D
:101AE600672D73087502031D7A2D72087402031C94
:101AF6007D2D7E2D842D7208F4027308031CF503D8
:101B0600F50201300310F30CF20CFF3E031D852D88
:101B16000130F602031D902D912D742D77080319BF
:101B2600952D962D9B2DF409F509F40A0319F50A4E
:101B36007508F3007408F200080000300A128A11D2
:101B4600DE240A128A158230F700DD30F600F60B25
:101B5600AA2DF70BAA2DAF2D03300A128A15CC2316
:101B66000A128A152130F7007630F600F60BB92DE9
:101B7600F70BB92D000003300A128A15CC230A127E
:101B86008A154830F7006C30F600F60BC82DF70BB7
:101B9600C82D000003300A128A15CC230A128A15B2
:101BA60002300A128A15CC230A128A1502300A124A
:101BB6008A15CC230A128A1508300A128A15CC23F4
:101BC6000A128A1500300A128A15CC230A128A15BF
:101BD6000C300A128A15CC230A128A1500300A1212
:101BE6008A15CC230A128A1506300A128A15CC23C6
:101BF6000A128A150800F701F31F022E032E0A2E79
:101C0600F209F309F20A0319F30A0130F700F51F86
:101C16000D2E0E2E152EF409F509F40A0319F50AF0
:101C26000130F706F801F9017208730403191C2E36
:101C36001D2E522E0130F600292E01300310F20D12
:101C4600F30DFF3E031D212E0130F607F31F2C2E48
:101C56002D2E202E01300310F80DF90DFF3E031D29
:101C66002E2E73087502031D3A2E72087402031C89
:101C76003D2E3E2E452E7208F4027308031CF50312
:101C8600F502781401300310F30CF20CFF3E031D2D
:101C9600462E0130F602031D512E522E2D2E7708A8
:101CA6000319562E572E5C2EF809F909F80A03195E
:101CB600F90A7908F3007808F20008000030831268
:101CC6000313AF000030AE000030AD000030AC00B2
:101CD60027082604250424040319722E732EBE2E0B
:101CE6000130B000812E0130FB000310A40DA50DBC
:101CF600A60DA70DFB0B782E0130B007A71F842E6B
:101D0600852E762E0130FB000310AC0DAD0DAE0D09
:101D1600AF0DFB0B872E27082B02031D9C2E2608D2
:101D26002A02031D9C2E25082902031D9C2E240829
:101D36002802031C9F2EA02EAF2E2408A8022508D9
:101D4600031C250FA9022608031C260FAA02270832
:101D5600031C270FAB022C1401300310A70CA60C92
:101D6600A50CA40CFF3E031DB02E0130B002031DCE
:101D7600BD2EBE2E852E2F08A7002E08A6002D08E4
:101D8600A5002C08A400080083120313A101F51F67
:101D9600CD2ECE2EDB2EF209F309F409F509F20A4F
:101DA6000319F30A0319F40A0319F50A0130A1000D
:101DB600F91FDE2EDF2EEC2EF609F709F809F909D0
:101DC600F60A0319F70A0319F80A0319F90A013082
:101DD600A1060030A5000030A4000030A3000030AA
:101DE600A20075087404730472040319FB2EFC2EFA
:101DF600472F0130A0000A2F0130FA000310F20D20
:101E0600F30DF40DF50DFA0B012F0130A007F51FA8
:101E16000D2F0E2FFF2E0130FA000310A20DA30D79
:101E2600A40DA50DFA0B102F75087902031D252F99
:101E360074087802031D252F73087702031D252FCA
:101E460072087602031C282F292F382F7208F602F3
:101E56007308031C730FF7027408031C740FF8024F
:101E66007508031C750FF902221401300310F50CD6
:101E7600F40CF30CF20CFF3E031D392F0130A002C7
:101E8600031D462F472F0E2F210803194B2F4C2FCA
:101E9600572FA209A309A409A509A20A0319A30A8F
:101EA6000319A40A0319A50A2508F5002408F40055
:101EB6002308F3002208F2000800740875040319C9
:101EC600652F662F6C2F74087504031D6B2F6C2FFE
:101ED600732F72080A128A1103200A128A15FF2F1D
:101EE6007408093E83120313A00075080318013E07
:101EF600003EA100200884008317211C83130008DC
:101F0600A200840A0008A3002208230403198C2FC8
:101F16008D2FBF2F7408093EA00075080318013ED7
:101F2600003EA100200884008317211C83130008AB
:101F3600A200840A0008A3007408023EA4007508E3
:101F46000318013E003EA500240884008317251CC3
:101F560083130008A600840A0008A7002708803A11
:101F6600A8002308803A2802031DBB2F2208260258
:101F76000318BE2FBF2FFF2F740884008317751C0C
:101F86008313000883120313A000840A0008A1002B
:101F96007408023EA20075080318013E003EA30025
:101FA600220884008317231C831300082007A5003A
:101FB6002108A4000318A40A801FE22FA403831299
:101FC60003132408A600250884008317261C831300
:101FD600720880007408023EA00075080318013ECE
:101FE600003EA100200884008317211C83130130C2
:0A1FF6008007840A0318800A08001F
:02400E00363F3B
:00000001FF
