:020000040000FA
:060000000A128A110E280D
:10000800FE00030EF0000A08F1007F08F2000A1251
:100018008A15FC2E0A128A111128831603130A1254
:100028008A11FB270A128A11EA000A128A11FC2790
:100038000A128A11EB008313C6308400EA300A12D0
:100048008A15F7250A128A114F3084006A300A127D
:100058008A15F7250A128A11F901FA0183010A1291
:100068008A1136288316031388010130860081130C
:100078000A128A15EF250A128A11831203138616AB
:100088000030B1000030B0002530AF008030AE0045
:100098000A128A152B270A128A110A128A11552761
:1000A8000A128A110A128A1508260A128A110A12D5
:1000B8008A15FF250A128A110A128A1515260A12AC
:1000C8008A11F701F70A01300A128A1561270A1204
:1000D8008A115730F4008030F5000A128A1103267D
:1000E8000A128A1164008312031306187C287D28DB
:1000F800F628043083120313CE00CF30CD00013030
:10010800CC00CC0B8528CD0B8528CE0B85288312F7
:100118000313061890289128F628831603136A08F3
:100128006B04031998289A2801309B280030831201
:100138000313CC00CD014C0883160313EA00831285
:1001480003134D0883160313EB006A086B040319A5
:10015800AE28AF28CF280A128A15EF250A128A116D
:10016800831203138616F701F70A01300A128A155B
:1001780061270A128A115730F4008030F5000A12FC
:100188008A1103260A128A116C300A128A1523264C
:100198000A128A11F0280A128A15EF250A128A1102
:1001A800831203138614F701F70A01300A128A151D
:1001B80061270A128A116830F4008030F5000A12AB
:1001C8008A1103260A128A1175300A128A15232603
:1001D8000A128A11F028640083120313061CF528FA
:1001E800F628EF28831603136A086B04031DFD28FD
:1001F800FE289D290A128A1541260A128A117408B6
:1002080083160313C0007308BF0000308312031362
:10021800AB000030AA000330A900FF30A800831605
:1002280003133F0883120313A00083160313400827
:1002380083120313A1000030A11BFF30A200A3000A
:100248000030A7000030A6000030A500DC30A40074
:100258000A128A11B3270A128A1183120313230878
:10026800AF002208AE002108AD002008AC000A1239
:100278008A118A260A128A118312031329088316FF
:100288000313E90083120313280883160313E800F5
:1002980066036704031D51295229AE29B030831221
:1002A8000313BB00A430BC00831603136908831230
:1002B8000313BE0083160313680883120313BD00DB
:1002C8000A128A15D9260A128A11B030F4000A12C5
:1002D8008A1566260A128A11A03083120313BB00FE
:1002E8003530BC0083160313690883120313BE005C
:1002F80083160313680883120313BD000A128A15B4
:10030800D9260A128A11F701F70A02300A128A1549
:1003180061270A128A11A030F4000030F5000A1291
:100328008A1103260A128A1183160313E601E701CC
:10033800AE29F701F70A02300A128A1561270A1254
:100348008A111330F4008030F5000A128A1103264E
:100358000A128A11831203138C1EB329B429762832
:100368000A128A1531260A128A1183160313C50048
:1003780075304506031DC129C229DE29EA01EB01B2
:100388000A128A15EF250A128A118312031386149A
:10039800F701F70A01300A128A1561270A128A1131
:1003A8004630F4008030F5000A128A1103260A123A
:1003B8008A1176286C304506031DE329E429022AB0
:1003C8000130EA000030EB000A128A15EF250A1204
:1003D8008A11831203138616F701F70A01300A12ED
:1003E8008A1561270A128A112430F4008030F5003A
:1003F8000A128A1103260A128A1176284230450603
:10040800031D072A082A622A0A128A15EF250A12EA
:100418008A118312031306150A128A1508260A126E
:100428008A11F701F70A01300A128A1561270A12A0
:100438008A119730F4008030F5000A128A110326D9
:100448000A128A11F701F70A02300A128A1561277F
:100458000A128A118830F4008030F5000A128A11D5
:1004680003260A128A1183160313C101C201420826
:10047800803AFF0080307F02031D442A1E3041026B
:10048800031C472A482A492A612A03308312031386
:10049800CE008A30CD005530CC00CC0B512ACD0B84
:1004A800512ACE0B512A6400013083160313C10769
:1004B8000318C20A0030C2073B2A612A43304506A6
:1004C800031D672A682AC32A0A128A15EF250A1209
:1004D8008A1183120313061686150A128A1508262E
:1004E8000A128A11F701F70A01300A128A156127E0
:1004F8000A128A117930F4008030F5000A128A1144
:1005080003260A128A11F701F70A02300A128A151D
:1005180061270A128A118830F4008030F5000A1227
:100528008A1103260A128A1183160313C301C40110
:100538004408803AFF0080307F02031DA52A1E3040
:100548004302031CA82AA92AAA2AC22A0330831212
:100558000313CE008A30CD005530CC00CC0BB22A24
:10056800CD0BB22ACE0BB22A6400013083160313D6
:10057800C3070318C40A0030C4079C2AC22A4508C6
:10058800031DC72AC82A76280A128A15EF250A12D7
:100598008A118312031306160A128A1508260A12EC
:1005A8008A11F701F70A01300A128A1561270A121F
:1005B8008A110130F4008030F5000A128A110326EE
:1005C8000A128A118312031306128230831203134C
:1005D800CD00DD30CC00CC0BEF2ACD0BEF2A8312F7
:1005E800031306160611823083120313CD00DD3083
:1005F800CC00CC0BFD2ACD0BFD2A83120313061564
:100608008610823083120313CD00DD30CC00CC0B72
:100618000B2BCD0B0B2B83120313861486158230FC
:1006280083120313CD00DD30CC00CC0B192BCD0B7E
:10063800192B8312031386116400E62A0A128A1101
:100648000E28831203132B088400831300088400E8
:100658000A128A1118240A128A11253A031D352B09
:10066800362BF42B2B08840001308007E301E401CA
:100678000030E900FF30E500FF30E6002B08840079
:100688000008B000300884000A128A1118240A12DF
:100698008A11643A0319512B522B5E2B30088400BF
:1006A8000A128A1118240A128A11693A031D5D2B4D
:1006B8005E2BEC2B2C0884000008AD00023080076C
:1006C8002D0884000008B100840A0008B2002B0835
:1006D80084003008013E80002030B500B21B752B25
:1006E800772B0130782B0030AF000130B502350888
:1006F800C63E84000A30F3000030F4003208F600E9
:100708003108F5000A128A15A9270A128A117408F5
:1007180083120313A1007308A0000A128A15532636
:100728000A128A11831203132008303E83138000B3
:100738000A30F3000030F4003208F6003108F50002
:100748000A128A11F0260A128A11740883120313F6
:10075800B2007308B100310832040319B42BB52B69
:10076800BA2B3508031DB92BBA2B792B3508031979
:10077800BE2BBF2BE52B2F080319C32BC42BE52B4E
:100788000130B5023508C63E84002D308313800041
:10079800E52B3508C63E840083130008AD00AE0182
:1007A8002D08F3002E08F4002908F5002A08F600A1
:1007B8000A128A11CA240A128A11013083120313F9
:1007C800B50720303506031DEA2BEB2BCD2B0D2C5E
:1007D800831203132B0884000130831380070D2C28
:1007E8002B088400000884000A128A1118240A12AF
:1007F8008A11AD00AE012D08F3002E08F400290877
:10080800F5002A08F6000A128A11CA240A128A1167
:10081800EC2B0800FF1B182C83137F188317000884
:10082800840A0319FF0A080004308A000408840AAD
:10083800820700342134213420344634413454347E
:1008480041344C3420344534523452344F345234C9
:10085800203421342134003445344E34473449346B
:100868004E34453420344F34463446342034203412
:1008780020342034203420340034523445344D346C
:100888004F345434453420344C344F3443344B348F
:100898002034203420342034203400345634453475
:1008A8004C343A3420342534643420344B346D3499
:1008B8002F34683420342034203420340034523427
:1008C80045344D344F3454344534203455344E3443
:1008D8004C344F3443344B342034203420340034E7
:1008E8005334543441345434553453343A34203422
:1008F8004C344F3443344B3445344434203420345E
:1009080000345334543441345434553453343A3421
:10091800203455344E344C344F3443344B344534FE
:10092800443400344334523449345434493443341D
:1009380041344C3420344634413449344C34213425
:100948000034573444345434203452344534433416
:100958004F345634453452342E342E342E34003429
:1009680042345534533420345734413452344E349D
:1009780049344E344734213400342334313430344C
:1009880030343A3425346434243400347508760419
:100998000319CF2CD02CD62C75087604031DD52C22
:1009A800D62CDD2C73080A128A11FD270A128A1127
:1009B800692D7508093E83120313A00076080318F1
:1009C800013E003EA100200884008317211C8313E8
:1009D8000008A200840A0008A300220823040319BF
:1009E800F62CF72C292D7508093EA0007608031867
:1009F800013E003EA100200884008317211C8313B8
:100A08000008A200840A0008A3007508023EA4009A
:100A180076080318013E003EA500240884008317C9
:100A2800251C83130008A600840A0008A7002708CD
:100A3800803AA8002308803A2802031D252D2208A1
:100A480026020318282D292D692D7508840083177F
:100A5800761C8313000883120313A000840A00087D
:100A6800A1007508023EA20076080318013E003E68
:100A7800A300220884008317231C8313000820077F
:100A8800A5002108A4000318A40A801F4C2DA40364
:100A9800831203132408A600250884008317261C44
:100AA8008313730880007508023EA00076080318B7
:100AB800013E003EA100200884008317211C8313F7
:100AC80001308007840A0318800A08008312031380
:100AD800A901A31F702D712D7E2DA009A109A209BE
:100AE800A309A00A0319A10A0319A20A0319A30A50
:100AF8000130A900A71F812D822D8F2DA409A509DA
:100B0800A609A709A40A0319A50A0319A60A03191D
:100B1800A70A0130A9060030AD000030AC00003053
:100B2800AB000030AA002308220421042004031982
:100B38009E2D9F2DEA2D0130A800AD2D0130F30028
:100B48000310A00DA10DA20DA30DF30BA42D0130D0
:100B5800A807A31FB02DB12DA22D0130F30003105B
:100B6800AA0DAB0DAC0DAD0DF30BB32D2308270269
:100B7800031DC82D22082602031DC82D21082502A1
:100B8800031DC82D20082402031CCB2DCC2DDB2DE2
:100B98002008A4022108031C210FA5022208031C17
:100BA800220FA6022308031C230FA7022A140130D0
:100BB8000310A30CA20CA10CA00CFF3E031DDC2DFE
:100BC8000130A802031DE92DEA2DB12D29080319CA
:100BD800EE2DEF2DFA2DAA09AB09AC09AD09AA0A29
:100BE8000319AB0A0319AC0A0319AD0A2D08A300AF
:100BF8002C08A2002B08A1002A08A00008008312D4
:100C08000313A201A3016D2E22087407F7007508CB
:100C1800F6000318F60AA21F122EF6037608F8004B
:100C2800780883120313FF00770884000A128A11D8
:100C38000E240A128A11A0000F30A005220874079A
:100C4800F7007508F6000318F60AA21F2C2EF60303
:100C58007608F800780883120313FF0077088400E9
:100C68000A128A110E240A128A11A100F030A10575
:100C780008152108F60004300310F60CFF3E031D8A
:100C8800402E76080A128A1594260A128A118312AF
:100C9800031388154230F600F60B502E000083121D
:100CA8000313881120080A128A1594260A128A1139
:100CB8008312031388154230F600F60B612E0000EC
:100CC8008312031388110130A2070318A30A003006
:100CD800A30722087407F7007508F6000318F60A38
:100CE800A21F772EF6037608F800780883120313FC
:100CF800FF00770884000A128A110E240A128A114A
:100D0800003A031D882E892E082E08000030831211
:100D18000313B3000030B2000030B1000030B0005F
:100D28002B082A042904280403199B2E9C2EE72E3D
:100D38000130B400AA2E0130F8000310A80DA90D47
:100D4800AA0DAB0DF80BA12E0130B407AB1FAD2EC9
:100D5800AE2E9F2E0130F8000310B00DB10DB20D6C
:100D6800B30DF80BB02E2B082F02031DC52E2A0831
:100D78002E02031DC52E29082D02031DC52E280885
:100D88002C02031CC82EC92ED82E2808AC0229080C
:100D9800031C290FAD022A08031C2A0FAE022B08D8
:100DA800031C2B0FAF02301401300310AB0CAA0C3C
:100DB800A90CA80CFF3E031DD92E0130B402031D57
:100DC800E62EE72EAE2E3308AB003208AA00310813
:100DD800A9003008A800080083120313A101F41F1A
:100DE800F62EF72EFE2EF309F409F30A0319F40A76
:100DF8000130A100F61F012F022F092FF509F6096E
:100E0800F50A0319F60A0130A106A201A301730825
:100E180074040319102F112F462F0130A0001D2F25
:100E280001300310F30DF40DFF3E031D152F0130A3
:100E3800A007F41F202F212F142F01300310A20D1B
:100E4800A30DFF3E031D222F74087602031D2E2FCB
:100E580073087502031C312F322F392F7308F502DE
:100E68007408031CF603F602221401300310F40C74
:100E7800F30CFF3E031D3A2F0130A002031D452F3E
:100E8800462F212F210803194A2F4B2F502FA20933
:100E9800A309A20A0319A30A2308F4002208F300ED
:100EA800080000300A128A1594260A128A11823024
:100EB800F800DD30F700F70B5F2FF80B5F2F642F7A
:100EC80003300A128A157A260A128A112130F8008C
:100ED8007630F700F70B6E2FF80B6E2F00000330FB
:100EE8000A128A157A260A128A114830F8006C30DC
:100EF800F700F70B7D2FF80B7D2F000003300A1247
:100F08008A157A260A128A1102300A128A157A2656
:100F18000A128A1102300A128A157A260A128A11CE
:100F280008300A128A157A260A128A1100300A1223
:100F38008A157A260A128A110C300A128A157A261C
:100F48000A128A1100300A128A157A260A128A11A0
:100F580006300A128A157A260A128A110800003009
:100F6800F7000030F6000030F5000030F40083127E
:100F78000313201CC02FC12FD82F2408F4072508DD
:100F880003110318013E0319CA2FF5072608031198
:100F98000318013E0319D12FF60727080311031878
:100FA800013E0319D82FF7070130F3000310A40DF1
:100FB800A50DA60DA70DF30BDA2F01300310A30C16
:100FC800A20CA10CA00CFF3E031DE22F2308220453
:100FD80021042004031DF12FF22FBB2F7708A30053
:100FE8007608A2007508A1007408A0000800013462
:040FF80000340800B9
:101BDE008312031386100611061286128611080050
:101BEE0064008001840A0406031900340406F82DEB
:101BFE004130831203139F008E30831603139F0010
:101C0E00080000300A128A157A260A128A15013047
:101C1E000A128A157A260A128A15080031308312A2
:101C2E00031390000B308F00DC308E0083160313ED
:101C3E000C140B178B170800F300262E6400831666
:101C4E000313981C2B2E2C2E252E73088312031390
:101C5E0099000800332E6400831203138C1E382E55
:101C6E00392E322E981C3C2E3D2E3F2E1812181651
:101C7E001A080800831203131F15462E64008312E0
:101C8E0003131F194B2E4C2E452E1E08F4008316DF
:101C9E0003131E08F300080083120313A11B582E12
:101CAE00592E5A2E652E2009A2002109A300A20A40
:101CBE000319A30A2208A0002308A1000800712E10
:101CCE007408840000080A128A1523260A128A153F
:101CDE000130F4077408840083130008031D782E66
:101CEE00792E672E0800F60083120313081176086A
:101CFE000A128A1594260A128A158312031388155E
:101D0E001A30F500F830F400F40B8B2EF50B8B2EF9
:101D1E0000008312031388110800F300731C982E21
:101D2E00992E9D2E831203130816A02E83120313D1
:101D3E000812F31CA32EA42EA62E8816A72E8812E8
:101D4E00731DAA2EAB2EAD2E0817AE2E0813F31D43
:101D5E00B12EB22EB42E8817B52E8813080083121A
:101D6E0003133808BA00C82E3608A9003708AA008F
:101D7E003A30AB003908AC000A128A1125230A1238
:101D8E008A15831203133A0884000A128A11182442
:101D9E000A128A15003A031DD52ED62EBB2EB60179
:101DAE00B70108003D3083120313C0003B08C10089
:101DBE000030C200C301C401CA01CB014130B600DC
:101DCE000030B7003C08B8004030B9000A128A153E
:101DDE00B6260A128A158312031343083B07BF0067
:101DEE003F088400831380010800831203130C1C28
:101DFE00012F022F222F0C100B308F00DC308E00A3
:101E0E000130F9070318FA0A0030FA077A08803A07
:101E1E00FF0080307F02031D162F05307902031C50
:101E2E00192F1A2F222F013083160313E6000030CC
:101E3E00E700F901FA017208FF0071088A00700EBE
:101E4E008300FE0E7E0E0900831203132E08F4008B
:101E5E002F08F5003008F6003108F70004300310A3
:101E6E00F40DF50DF60DF70DFF3E031D362F770819
:101E7E00A3007608A2007508A1007408A000013026
:101E8E00A7003130A6002D30A5000030A4000A12A4
:101E9E008A116A250A128A15831203132008FF3E3F
:101EAE008316031399001815981683120313181628
:101EBE009817080083120313A0002003031D682F38
:101ECE00692F892F77087F3EA3002308F80004307E
:101EDE000310F80CFF3E031D6F2F7808A100230896
:101EEE00A2000F30A20521080A128A157A260A12BC
:101EFE008A158312031322080A128A157A260A12E9
:101F0E008A15A82F7708BF3EA3002308F8000430D7
:101F1E000310F80CFF3E031D8F2F7808A100230835
:101F2E00A2000F30A20521080A128A157A260A127B
:101F3E008A158312031322080A128A157A260A12A8
:101F4E008A150800F801F61FAD2FAE2FB52FF50933
:101F5E00F609F50A0319F60A0130F800F41FB82F36
:101F6E00B92FBE2FF309F409F30A0319F40A730803
:101F7E0074040319C32FC42FF12F0130F700D02F93
:101F8E0001300310F30DF40DFF3E031DC82F013079
:101F9E00F707F41FD32FD42FC72F74087602031D13
:101FAE00DA2F73087502031CDD2FDE2FE42F730862
:101FBE00F5027408031CF603F60201300310F40C4C
:101FCE00F30CFF3E031DE52F0130F702031DF02F2A
:101FDE00F12FD42F78080319F52FF62FFB2FF509C3
:101FEE00F609F50A0319F60A7608F4007508F300E7
:021FFE000800D9
:02400E00363F3B
:00000001FF
